{
  "_format": "hh-sol-artifact-1",
  "contractName": "Exchange",
  "sourceName": "contracts/Exchange.sol",
  "abi": [
    {
      "anonymous": false,
      "inputs": [
        {
          "indexed": true,
          "internalType": "bytes32",
          "name": "hash",
          "type": "bytes32"
        }
      ],
      "name": "CancelOrder",
      "type": "event"
    },
    {
      "anonymous": false,
      "inputs": [
        {
          "indexed": true,
          "internalType": "bytes32",
          "name": "buyHash",
          "type": "bytes32"
        },
        {
          "indexed": true,
          "internalType": "bytes32",
          "name": "sellHash",
          "type": "bytes32"
        },
        {
          "indexed": true,
          "internalType": "address",
          "name": "maker",
          "type": "address"
        },
        {
          "indexed": false,
          "internalType": "address",
          "name": "taker",
          "type": "address"
        },
        {
          "indexed": false,
          "internalType": "uint256",
          "name": "price",
          "type": "uint256"
        },
        {
          "indexed": false,
          "internalType": "address",
          "name": "paymentToken",
          "type": "address"
        }
      ],
      "name": "MatchedOrder",
      "type": "event"
    },
    {
      "anonymous": false,
      "inputs": [
        {
          "indexed": true,
          "internalType": "enum Exchange.Side",
          "name": "side",
          "type": "uint8"
        },
        {
          "indexed": true,
          "internalType": "bytes32",
          "name": "hash",
          "type": "bytes32"
        },
        {
          "indexed": true,
          "internalType": "address",
          "name": "maker",
          "type": "address"
        },
        {
          "indexed": false,
          "internalType": "address",
          "name": "taker",
          "type": "address"
        },
        {
          "indexed": false,
          "internalType": "address",
          "name": "royaltyRecipient",
          "type": "address"
        },
        {
          "indexed": false,
          "internalType": "address",
          "name": "nftAddress",
          "type": "address"
        },
        {
          "indexed": false,
          "internalType": "uint256",
          "name": "tokenId",
          "type": "uint256"
        },
        {
          "indexed": false,
          "internalType": "uint256",
          "name": "basePrice",
          "type": "uint256"
        },
        {
          "indexed": false,
          "internalType": "uint256",
          "name": "listingTime",
          "type": "uint256"
        },
        {
          "indexed": false,
          "internalType": "uint256",
          "name": "expirationTime",
          "type": "uint256"
        },
        {
          "indexed": false,
          "internalType": "address",
          "name": "paymentToken",
          "type": "address"
        }
      ],
      "name": "OrderCreated",
      "type": "event"
    },
    {
      "anonymous": false,
      "inputs": [
        {
          "indexed": true,
          "internalType": "address",
          "name": "previousOwner",
          "type": "address"
        },
        {
          "indexed": true,
          "internalType": "address",
          "name": "newOwner",
          "type": "address"
        }
      ],
      "name": "OwnershipTransferred",
      "type": "event"
    },
    {
      "anonymous": false,
      "inputs": [
        {
          "indexed": true,
          "internalType": "address",
          "name": "sender",
          "type": "address"
        },
        {
          "indexed": false,
          "internalType": "uint256",
          "name": "amount",
          "type": "uint256"
        }
      ],
      "name": "Received",
      "type": "event"
    },
    {
      "stateMutability": "payable",
      "type": "fallback"
    },
    {
      "inputs": [
        {
          "components": [
            {
              "internalType": "address",
              "name": "exchange",
              "type": "address"
            },
            {
              "internalType": "address payable",
              "name": "maker",
              "type": "address"
            },
            {
              "internalType": "address payable",
              "name": "taker",
              "type": "address"
            },
            {
              "internalType": "address payable",
              "name": "royaltyRecipient",
              "type": "address"
            },
            {
              "internalType": "enum Exchange.Side",
              "name": "side",
              "type": "uint8"
            },
            {
              "internalType": "address",
              "name": "nftAddress",
              "type": "address"
            },
            {
              "internalType": "uint256",
              "name": "tokenId",
              "type": "uint256"
            },
            {
              "internalType": "uint256",
              "name": "basePrice",
              "type": "uint256"
            },
            {
              "internalType": "uint256",
              "name": "listingTime",
              "type": "uint256"
            },
            {
              "internalType": "uint256",
              "name": "expirationTime",
              "type": "uint256"
            },
            {
              "internalType": "address",
              "name": "paymentToken",
              "type": "address"
            }
          ],
          "internalType": "struct Exchange.Order",
          "name": "buy",
          "type": "tuple"
        },
        {
          "components": [
            {
              "internalType": "uint8",
              "name": "v",
              "type": "uint8"
            },
            {
              "internalType": "bytes32",
              "name": "r",
              "type": "bytes32"
            },
            {
              "internalType": "bytes32",
              "name": "s",
              "type": "bytes32"
            }
          ],
          "internalType": "struct Exchange.Sig",
          "name": "buySig",
          "type": "tuple"
        },
        {
          "components": [
            {
              "internalType": "address",
              "name": "exchange",
              "type": "address"
            },
            {
              "internalType": "address payable",
              "name": "maker",
              "type": "address"
            },
            {
              "internalType": "address payable",
              "name": "taker",
              "type": "address"
            },
            {
              "internalType": "address payable",
              "name": "royaltyRecipient",
              "type": "address"
            },
            {
              "internalType": "enum Exchange.Side",
              "name": "side",
              "type": "uint8"
            },
            {
              "internalType": "address",
              "name": "nftAddress",
              "type": "address"
            },
            {
              "internalType": "uint256",
              "name": "tokenId",
              "type": "uint256"
            },
            {
              "internalType": "uint256",
              "name": "basePrice",
              "type": "uint256"
            },
            {
              "internalType": "uint256",
              "name": "listingTime",
              "type": "uint256"
            },
            {
              "internalType": "uint256",
              "name": "expirationTime",
              "type": "uint256"
            },
            {
              "internalType": "address",
              "name": "paymentToken",
              "type": "address"
            }
          ],
          "internalType": "struct Exchange.Order",
          "name": "sell",
          "type": "tuple"
        },
        {
          "components": [
            {
              "internalType": "uint8",
              "name": "v",
              "type": "uint8"
            },
            {
              "internalType": "bytes32",
              "name": "r",
              "type": "bytes32"
            },
            {
              "internalType": "bytes32",
              "name": "s",
              "type": "bytes32"
            }
          ],
          "internalType": "struct Exchange.Sig",
          "name": "sellSig",
          "type": "tuple"
        }
      ],
      "name": "acceptOrder",
      "outputs": [],
      "stateMutability": "payable",
      "type": "function"
    },
    {
      "inputs": [
        {
          "components": [
            {
              "internalType": "address",
              "name": "exchange",
              "type": "address"
            },
            {
              "internalType": "address payable",
              "name": "maker",
              "type": "address"
            },
            {
              "internalType": "address payable",
              "name": "taker",
              "type": "address"
            },
            {
              "internalType": "address payable",
              "name": "royaltyRecipient",
              "type": "address"
            },
            {
              "internalType": "enum Exchange.Side",
              "name": "side",
              "type": "uint8"
            },
            {
              "internalType": "address",
              "name": "nftAddress",
              "type": "address"
            },
            {
              "internalType": "uint256",
              "name": "tokenId",
              "type": "uint256"
            },
            {
              "internalType": "uint256",
              "name": "basePrice",
              "type": "uint256"
            },
            {
              "internalType": "uint256",
              "name": "listingTime",
              "type": "uint256"
            },
            {
              "internalType": "uint256",
              "name": "expirationTime",
              "type": "uint256"
            },
            {
              "internalType": "address",
              "name": "paymentToken",
              "type": "address"
            }
          ],
          "internalType": "struct Exchange.Order",
          "name": "order",
          "type": "tuple"
        }
      ],
      "name": "cancelOrdeByViolation",
      "outputs": [],
      "stateMutability": "nonpayable",
      "type": "function"
    },
    {
      "inputs": [
        {
          "components": [
            {
              "internalType": "address",
              "name": "exchange",
              "type": "address"
            },
            {
              "internalType": "address payable",
              "name": "maker",
              "type": "address"
            },
            {
              "internalType": "address payable",
              "name": "taker",
              "type": "address"
            },
            {
              "internalType": "address payable",
              "name": "royaltyRecipient",
              "type": "address"
            },
            {
              "internalType": "enum Exchange.Side",
              "name": "side",
              "type": "uint8"
            },
            {
              "internalType": "address",
              "name": "nftAddress",
              "type": "address"
            },
            {
              "internalType": "uint256",
              "name": "tokenId",
              "type": "uint256"
            },
            {
              "internalType": "uint256",
              "name": "basePrice",
              "type": "uint256"
            },
            {
              "internalType": "uint256",
              "name": "listingTime",
              "type": "uint256"
            },
            {
              "internalType": "uint256",
              "name": "expirationTime",
              "type": "uint256"
            },
            {
              "internalType": "address",
              "name": "paymentToken",
              "type": "address"
            }
          ],
          "internalType": "struct Exchange.Order",
          "name": "order",
          "type": "tuple"
        },
        {
          "components": [
            {
              "internalType": "uint8",
              "name": "v",
              "type": "uint8"
            },
            {
              "internalType": "bytes32",
              "name": "r",
              "type": "bytes32"
            },
            {
              "internalType": "bytes32",
              "name": "s",
              "type": "bytes32"
            }
          ],
          "internalType": "struct Exchange.Sig",
          "name": "sig",
          "type": "tuple"
        }
      ],
      "name": "cancelOrder",
      "outputs": [],
      "stateMutability": "nonpayable",
      "type": "function"
    },
    {
      "inputs": [
        {
          "internalType": "bytes32",
          "name": "",
          "type": "bytes32"
        }
      ],
      "name": "cancelledOrFinalized",
      "outputs": [
        {
          "internalType": "bool",
          "name": "",
          "type": "bool"
        }
      ],
      "stateMutability": "view",
      "type": "function"
    },
    {
      "inputs": [],
      "name": "commissionFee",
      "outputs": [
        {
          "internalType": "uint256",
          "name": "",
          "type": "uint256"
        }
      ],
      "stateMutability": "view",
      "type": "function"
    },
    {
      "inputs": [],
      "name": "commissionFeeRecipient",
      "outputs": [
        {
          "internalType": "address",
          "name": "",
          "type": "address"
        }
      ],
      "stateMutability": "view",
      "type": "function"
    },
    {
      "inputs": [
        {
          "components": [
            {
              "internalType": "address",
              "name": "exchange",
              "type": "address"
            },
            {
              "internalType": "address payable",
              "name": "maker",
              "type": "address"
            },
            {
              "internalType": "address payable",
              "name": "taker",
              "type": "address"
            },
            {
              "internalType": "address payable",
              "name": "royaltyRecipient",
              "type": "address"
            },
            {
              "internalType": "enum Exchange.Side",
              "name": "side",
              "type": "uint8"
            },
            {
              "internalType": "address",
              "name": "nftAddress",
              "type": "address"
            },
            {
              "internalType": "uint256",
              "name": "tokenId",
              "type": "uint256"
            },
            {
              "internalType": "uint256",
              "name": "basePrice",
              "type": "uint256"
            },
            {
              "internalType": "uint256",
              "name": "listingTime",
              "type": "uint256"
            },
            {
              "internalType": "uint256",
              "name": "expirationTime",
              "type": "uint256"
            },
            {
              "internalType": "address",
              "name": "paymentToken",
              "type": "address"
            }
          ],
          "internalType": "struct Exchange.Order",
          "name": "order",
          "type": "tuple"
        },
        {
          "components": [
            {
              "internalType": "address",
              "name": "exchange",
              "type": "address"
            },
            {
              "internalType": "address payable",
              "name": "maker",
              "type": "address"
            },
            {
              "internalType": "address payable",
              "name": "taker",
              "type": "address"
            },
            {
              "internalType": "address payable",
              "name": "royaltyRecipient",
              "type": "address"
            },
            {
              "internalType": "enum Exchange.Side",
              "name": "side",
              "type": "uint8"
            },
            {
              "internalType": "address",
              "name": "nftAddress",
              "type": "address"
            },
            {
              "internalType": "uint256",
              "name": "tokenId",
              "type": "uint256"
            },
            {
              "internalType": "uint256",
              "name": "basePrice",
              "type": "uint256"
            },
            {
              "internalType": "uint256",
              "name": "listingTime",
              "type": "uint256"
            },
            {
              "internalType": "uint256",
              "name": "expirationTime",
              "type": "uint256"
            },
            {
              "internalType": "address",
              "name": "paymentToken",
              "type": "address"
            }
          ],
          "internalType": "struct Exchange.Order",
          "name": "prevOrder",
          "type": "tuple"
        }
      ],
      "name": "createBidOrder",
      "outputs": [],
      "stateMutability": "payable",
      "type": "function"
    },
    {
      "inputs": [
        {
          "components": [
            {
              "internalType": "address",
              "name": "exchange",
              "type": "address"
            },
            {
              "internalType": "address payable",
              "name": "maker",
              "type": "address"
            },
            {
              "internalType": "address payable",
              "name": "taker",
              "type": "address"
            },
            {
              "internalType": "address payable",
              "name": "royaltyRecipient",
              "type": "address"
            },
            {
              "internalType": "enum Exchange.Side",
              "name": "side",
              "type": "uint8"
            },
            {
              "internalType": "address",
              "name": "nftAddress",
              "type": "address"
            },
            {
              "internalType": "uint256",
              "name": "tokenId",
              "type": "uint256"
            },
            {
              "internalType": "uint256",
              "name": "basePrice",
              "type": "uint256"
            },
            {
              "internalType": "uint256",
              "name": "listingTime",
              "type": "uint256"
            },
            {
              "internalType": "uint256",
              "name": "expirationTime",
              "type": "uint256"
            },
            {
              "internalType": "address",
              "name": "paymentToken",
              "type": "address"
            }
          ],
          "internalType": "struct Exchange.Order",
          "name": "order",
          "type": "tuple"
        }
      ],
      "name": "createFirstBidOrder",
      "outputs": [],
      "stateMutability": "payable",
      "type": "function"
    },
    {
      "inputs": [
        {
          "components": [
            {
              "internalType": "address",
              "name": "exchange",
              "type": "address"
            },
            {
              "internalType": "address payable",
              "name": "maker",
              "type": "address"
            },
            {
              "internalType": "address payable",
              "name": "taker",
              "type": "address"
            },
            {
              "internalType": "address payable",
              "name": "royaltyRecipient",
              "type": "address"
            },
            {
              "internalType": "enum Exchange.Side",
              "name": "side",
              "type": "uint8"
            },
            {
              "internalType": "address",
              "name": "nftAddress",
              "type": "address"
            },
            {
              "internalType": "uint256",
              "name": "tokenId",
              "type": "uint256"
            },
            {
              "internalType": "uint256",
              "name": "basePrice",
              "type": "uint256"
            },
            {
              "internalType": "uint256",
              "name": "listingTime",
              "type": "uint256"
            },
            {
              "internalType": "uint256",
              "name": "expirationTime",
              "type": "uint256"
            },
            {
              "internalType": "address",
              "name": "paymentToken",
              "type": "address"
            }
          ],
          "internalType": "struct Exchange.Order",
          "name": "order",
          "type": "tuple"
        }
      ],
      "name": "createOrder",
      "outputs": [],
      "stateMutability": "nonpayable",
      "type": "function"
    },
    {
      "inputs": [
        {
          "internalType": "address",
          "name": "",
          "type": "address"
        },
        {
          "internalType": "address",
          "name": "",
          "type": "address"
        },
        {
          "internalType": "uint256",
          "name": "",
          "type": "uint256"
        },
        {
          "internalType": "bytes",
          "name": "",
          "type": "bytes"
        }
      ],
      "name": "onERC721Received",
      "outputs": [
        {
          "internalType": "bytes4",
          "name": "",
          "type": "bytes4"
        }
      ],
      "stateMutability": "pure",
      "type": "function"
    },
    {
      "inputs": [
        {
          "internalType": "bytes32",
          "name": "",
          "type": "bytes32"
        }
      ],
      "name": "orders",
      "outputs": [
        {
          "internalType": "bool",
          "name": "",
          "type": "bool"
        }
      ],
      "stateMutability": "view",
      "type": "function"
    },
    {
      "inputs": [],
      "name": "owner",
      "outputs": [
        {
          "internalType": "address",
          "name": "",
          "type": "address"
        }
      ],
      "stateMutability": "view",
      "type": "function"
    },
    {
      "inputs": [],
      "name": "proxyImplementation",
      "outputs": [
        {
          "internalType": "contract ExchangeProxyImpl",
          "name": "",
          "type": "address"
        }
      ],
      "stateMutability": "view",
      "type": "function"
    },
    {
      "inputs": [],
      "name": "renounceOwnership",
      "outputs": [],
      "stateMutability": "nonpayable",
      "type": "function"
    },
    {
      "inputs": [],
      "name": "royaltyFee",
      "outputs": [
        {
          "internalType": "uint256",
          "name": "",
          "type": "uint256"
        }
      ],
      "stateMutability": "view",
      "type": "function"
    },
    {
      "inputs": [],
      "name": "secondCommissionFee",
      "outputs": [
        {
          "internalType": "uint256",
          "name": "",
          "type": "uint256"
        }
      ],
      "stateMutability": "view",
      "type": "function"
    },
    {
      "inputs": [
        {
          "internalType": "uint256",
          "name": "newCommissionFee",
          "type": "uint256"
        }
      ],
      "name": "setCommissionFee",
      "outputs": [],
      "stateMutability": "nonpayable",
      "type": "function"
    },
    {
      "inputs": [
        {
          "internalType": "address payable",
          "name": "newCommissionFeeRecipient",
          "type": "address"
        }
      ],
      "name": "setCommissionFeeRecipient",
      "outputs": [],
      "stateMutability": "nonpayable",
      "type": "function"
    },
    {
      "inputs": [
        {
          "internalType": "address",
          "name": "newImpl",
          "type": "address"
        }
      ],
      "name": "setNewProxyImplementation",
      "outputs": [],
      "stateMutability": "nonpayable",
      "type": "function"
    },
    {
      "inputs": [
        {
          "internalType": "address",
          "name": "newProxyRegistry",
          "type": "address"
        }
      ],
      "name": "setNewProxyRegistry",
      "outputs": [],
      "stateMutability": "nonpayable",
      "type": "function"
    },
    {
      "inputs": [
        {
          "internalType": "uint256",
          "name": "newRoyalty",
          "type": "uint256"
        }
      ],
      "name": "setRoyaltyFee",
      "outputs": [],
      "stateMutability": "nonpayable",
      "type": "function"
    },
    {
      "inputs": [
        {
          "internalType": "uint256",
          "name": "newSecondCommissionFee",
          "type": "uint256"
        }
      ],
      "name": "setSecondCommissionFee",
      "outputs": [],
      "stateMutability": "nonpayable",
      "type": "function"
    },
    {
      "inputs": [],
      "name": "totalNativeBalance",
      "outputs": [
        {
          "internalType": "uint256",
          "name": "",
          "type": "uint256"
        }
      ],
      "stateMutability": "view",
      "type": "function"
    },
    {
      "inputs": [
        {
          "internalType": "address",
          "name": "newOwner",
          "type": "address"
        }
      ],
      "name": "transferOwnership",
      "outputs": [],
      "stateMutability": "nonpayable",
      "type": "function"
    },
    {
      "inputs": [
        {
          "internalType": "uint256",
          "name": "amount",
          "type": "uint256"
        }
      ],
      "name": "withdraw",
      "outputs": [],
      "stateMutability": "nonpayable",
      "type": "function"
    },
    {
      "stateMutability": "payable",
      "type": "receive"
    }
  ],
  "bytecode": "0x608060405260966006556046600755606460085534801561001f57600080fd5b50600160005561002e33610033565b610085565b600180546001600160a01b038381166001600160a01b0319831681179093556040519116919082907f8be0079c531659141344cd1fd0a4f28419497f9722a3daafe3b4186f6b6457e090600090a35050565b61252d806100946000396000f3fe60806040526004361061016a5760003560e01c80636fb1eb0c116100d1578063ad1782d51161008a578063cb08bf6911610064578063cb08bf691461048e578063d6495b8c146104a1578063f2fde38b146104c1578063f51b8101146104e1576101b2565b8063ad1782d514610439578063adbe911d14610459578063b8997a9714610479576101b2565b80636fb1eb0c14610364578063715018a6146103795780638076f0051461038e578063895860e5146103cb5780638da5cb5b146103eb5780639c3f1e9014610409576101b2565b806321104e5d1161012357806321104e5d146102b55780632e1a7d4d146102c85780633e4086e5146102e85780634f47dedc14610308578063558aed081461032f57806361948c2d14610344576101b2565b806302c4885e146101eb57806308066480146102005780630c870f91146102265780631177ac0914610248578063150b7a02146102685780631d7b56e714610295576101b2565b366101b257336001600160a01b03167f88a5966d370b9919b20f3e2c13ff65706f196a4e32cc2c12bf57088f88525874346040516101a8919061199a565b60405180910390a2005b336001600160a01b03167f88a5966d370b9919b20f3e2c13ff65706f196a4e32cc2c12bf57088f88525874346040516101a8919061199a565b6101fe6101f9366004611b66565b610501565b005b34801561020c57600080fd5b5030315b60405161021d919061199a565b60405180910390f35b34801561023257600080fd5b5061023b6106a2565b60405161021d9190611bc4565b34801561025457600080fd5b506101fe610263366004611bd2565b6107ac565b34801561027457600080fd5b50610288610283366004611c4e565b610911565b60405161021d9190611ce2565b3480156102a157600080fd5b506101fe6102b0366004611cf0565b61093c565b6101fe6102c3366004611bd2565b6109e0565b3480156102d457600080fd5b506101fe6102e3366004611d11565b610b05565b3480156102f457600080fd5b506101fe610303366004611d11565b610b9b565b34801561031457600080fd5b506003546001600160a01b03165b60405161021d9190611d3b565b34801561033b57600080fd5b50600754610210565b34801561035057600080fd5b506101fe61035f366004611cf0565b610bca565b34801561037057600080fd5b50600654610210565b34801561038557600080fd5b506101fe610c29565b34801561039a57600080fd5b506103be6103a9366004611d11565b60046020526000908152604090205460ff1681565b60405161021d9190611d51565b3480156103d757600080fd5b506101fe6103e6366004611d11565b610c5f565b3480156103f757600080fd5b506001546001600160a01b0316610322565b34801561041557600080fd5b506103be610424366004611d11565b60056020526000908152604090205460ff1681565b34801561044557600080fd5b506101fe610454366004611bd2565b610c8e565b34801561046557600080fd5b506101fe610474366004611d11565b610da2565b34801561048557600080fd5b50600854610210565b6101fe61049c366004611dd1565b610dd1565b3480156104ad57600080fd5b506101fe6104bc366004611e39565b61107e565b3480156104cd57600080fd5b506101fe6104dc366004611cf0565b61121b565b3480156104ed57600080fd5b506101fe6104fc366004611cf0565b611277565b81604001516001600160a01b0316336001600160a01b0316148015610531575060208201516001600160a01b0316155b6105565760405162461bcd60e51b815260040161054d90611e9c565b60405180910390fd5b8060e001518260e001511161056a57600080fd5b8160e00151341461057a57600080fd5b80604001516001600160a01b03166108fc8260e001519081150290604051600060405180830381858888f193505050501580156105bb573d6000803e3d6000fd5b506105c581611330565b60006105d083611383565b60008181526005602052604090205490915060ff16156105ef57600080fd5b6000818152600560209081526040909120805460ff191660019081179091559084015160808501516001600160a01b039091169183919081111561063557610635611eac565b7fd24d463f42ae50654008326de3a5287baecfd57db9c78f7f834fdfaa828f271c866040015187606001518860a001518960c001518a60e001518b61010001518c61012001518d6101400151604051610695989796959493929190611ec2565b60405180910390a4505050565b60025460405163c455279160e01b815260009182916001600160a01b039091169063c4552791906106d7903090600401611d3b565b602060405180830381865afa1580156106f4573d6000803e3d6000fd5b505050506040513d601f19601f820116820180604052508101906107189190611f4d565b90506001600160a01b03811661072d57600080fd5b6000816001600160a01b031663dfb808316040518163ffffffff1660e01b8152600401602060405180830381865afa15801561076d573d6000803e3d6000fd5b505050506040513d601f19601f820116820180604052508101906107919190611f79565b90506001600160a01b0381166107a657600080fd5b92915050565b80602001516001600160a01b0316336001600160a01b03161480156107dc575060408101516001600160a01b0316155b6107f85760405162461bcd60e51b815260040161054d90611fc5565b600061080382611383565b60008181526005602052604090205490915060ff161561082257600080fd5b600061082c6106a2565b9050806001600160a01b0316638d1bc0108460a001518560200151308760c001516040518563ffffffff1660e01b815260040161086c9493929190611fd5565b6020604051808303816000875af115801561088b573d6000803e3d6000fd5b505050506040513d601f19601f820116820180604052508101906108af919061201d565b6108cb5760405162461bcd60e51b815260040161054d90612065565b6000828152600560209081526040909120805460ff191660019081179091559084015160808501516001600160a01b039091169184919081111561063557610635611eac565b7f150b7a023d4804d13e8c85fb27262cb750cf6ba9f9dd3bb30d90f482ceeb4b1f5b95945050505050565b6001546001600160a01b031633146109665760405162461bcd60e51b815260040161054d906120a7565b6002546001600160a01b031661097b57600080fd5b60025460405163a8fcd60d60e01b81526001600160a01b039091169063a8fcd60d906109ab908490600401611d3b565b600060405180830381600087803b1580156109c557600080fd5b505af11580156109d9573d6000803e3d6000fd5b5050505050565b80604001516001600160a01b0316336001600160a01b0316148015610a10575060208101516001600160a01b0316155b610a1957600080fd5b6000610a2482611383565b60008181526005602052604090205490915060ff1615610a4357600080fd5b8160e001513414610a5357600080fd5b6000818152600560209081526040909120805460ff191660019081179091559083015160808401516001600160a01b0390911691839190811115610a9957610a99611eac565b7fd24d463f42ae50654008326de3a5287baecfd57db9c78f7f834fdfaa828f271c856040015186606001518760a001518860c001518960e001518a61010001518b61012001518c6101400151604051610af9989796959493929190611ec2565b60405180910390a45050565b60026000541415610b285760405162461bcd60e51b815260040161054d906120eb565b60026000556001546001600160a01b03163314610b575760405162461bcd60e51b815260040161054d906120a7565b3031811115610b6557600080fd5b604051339082156108fc029083906000818181858888f19350505050158015610b92573d6000803e3d6000fd5b50506001600055565b6001546001600160a01b03163314610bc55760405162461bcd60e51b815260040161054d906120a7565b600855565b6001546001600160a01b03163314610bf45760405162461bcd60e51b815260040161054d906120a7565b6001600160a01b038116610c0757600080fd5b600380546001600160a01b0319166001600160a01b0392909216919091179055565b6001546001600160a01b03163314610c535760405162461bcd60e51b815260040161054d906120a7565b610c5d60006114a6565b565b6001546001600160a01b03163314610c895760405162461bcd60e51b815260040161054d906120a7565b600655565b6001546001600160a01b03163314610cb85760405162461bcd60e51b815260040161054d906120a7565b6000610cc26106a2565b60a0830151602084015160c08501516040516308d1bc0160e41b81529394506001600160a01b03851693638d1bc01093610d0293909230926004016120fb565b6020604051808303816000875af1158015610d21573d6000803e3d6000fd5b505050506040513d601f19601f82011682018060405250810190610d45919061201d565b610d4e57600080fd5b6000610d5983611383565b600081815260046020526040808220805460ff191660011790555191925082917f42c76c81a7cba1b9c861353909a184e20747ab960332628dabcbb5852fc5cbb59190a2505050565b6001546001600160a01b03163314610dcc5760405162461bcd60e51b815260040161054d906120a7565b600755565b60026000541415610df45760405162461bcd60e51b815260040161054d906120eb565b60026000908155610e0485611383565b60408601519091506001600160a01b0316331415610e4357610e278186866114f8565b610e435760405162461bcd60e51b815260040161054d90612147565b6000610e4e84611383565b60208501519091506001600160a01b0316331415610e8d57610e718185856114f8565b610e8d5760405162461bcd60e51b815260040161054d9061217b565b610e9786856115ef565b610eb35760405162461bcd60e51b815260040161054d906121b6565b60a0840151803b9081610ec557600080fd5b6000610ed189886116a0565b90506000610edd6106a2565b60a089015160c08a015160405163095ea7b360e01b815292935090916001600160a01b0383169163095ea7b391610f189186916004016121c6565b600060405180830381600087803b158015610f3257600080fd5b505af1158015610f46573d6000803e3d6000fd5b50505050816001600160a01b0316638d1bc0108a60a00151308e604001518d60c001516040518563ffffffff1660e01b8152600401610f8894939291906120fb565b6020604051808303816000875af1158015610fa7573d6000803e3d6000fd5b505050506040513d601f19601f82011682018060405250810190610fcb919061201d565b610fe75760405162461bcd60e51b815260040161054d90612215565b60008781526004602090815260408083208054600160ff1991821681179092558a8552938290208054909416179092558a01518c8201516101408c015192516001600160a01b039092169289928b927f5e15ead6865eec16eec4cd0b6fb5d8cfa7f0fb9991193efbf7515749e31bcc5c92611064928a9190612225565b60405180910390a450506001600055505050505050505050565b81602001516001600160a01b0316336001600160a01b0316146110a057600080fd5b60006110ab83611383565b90506110b88184846114f8565b6110c157600080fd5b60006110cb6106a2565b60a085015160c086015160405163095ea7b360e01b815292935090916001600160a01b0383169163095ea7b3916111069186916004016121c6565b600060405180830381600087803b15801561112057600080fd5b505af1158015611134573d6000803e3d6000fd5b50505060a0860151602087015160c08801516040516308d1bc0160e41b81526001600160a01b0387169450638d1bc0109361117593909230926004016120fb565b6020604051808303816000875af1158015611194573d6000803e3d6000fd5b505050506040513d601f19601f820116820180604052508101906111b8919061201d565b6111d45760405162461bcd60e51b815260040161054d90612290565b600083815260046020526040808220805460ff191660011790555184917f42c76c81a7cba1b9c861353909a184e20747ab960332628dabcbb5852fc5cbb591a25050505050565b6001546001600160a01b031633146112455760405162461bcd60e51b815260040161054d906120a7565b6001600160a01b03811661126b5760405162461bcd60e51b815260040161054d906122e3565b611274816114a6565b50565b6001546001600160a01b031633146112a15760405162461bcd60e51b815260040161054d906120a7565b806001600160a01b031663ddd81f826040518163ffffffff1660e01b81526004016020604051808303816000875af11580156112e1573d6000803e3d6000fd5b505050506040513d601f19601f82011682018060405250810190611305919061201d565b61130e57600080fd5b600280546001600160a01b0319166001600160a01b0392909216919091179055565b600061133b82611383565b600081815260046020526040808220805460ff191660011790555191925082917f42c76c81a7cba1b9c861353909a184e20747ab960332628dabcbb5852fc5cbb59190a25050565b60008060018360800151600181111561139e5761139e611eac565b146113c4576040518060400160405280600381526020016262757960e81b8152506113e2565b604051806040016040528060048152602001631cd95b1b60e21b8152505b835160208086015160408088015160a089015160c08a015160e08b01516101008c01516101208d01516101408e015160608f015197519b9c5060009b61142f9b9a97988e98909101612373565b60408051601f1981840301815282825280516020918201208383018352601c84527f19457468657265756d205369676e6564204d6573736167653a0a333200000000848301529151919350611487929184910161242e565b6040516020818303038152906040528051906020012092505050919050565b600180546001600160a01b038381166001600160a01b0319831681179093556040519116919082907f8be0079c531659141344cd1fd0a4f28419497f9722a3daafe3b4186f6b6457e090600090a35050565b81516000906001600160a01b03163014611514575060006115e8565b60008481526004602052604090205460ff1615611533575060006115e8565b600060018460800151600181111561154d5761154d611eac565b1461155c578360400151611562565b83602001515b9050806001600160a01b03166001868560000151866020015187604001516040516000815260200160405260405161159d9493929190612459565b6020604051602081039080840390855afa1580156115bf573d6000803e3d6000fd5b505050602060405103516001600160a01b031614156115e25760019150506115e8565b60009150505b9392505050565b6000808360800151600181111561160857611608611eac565b14801561162a575060018260800151600181111561162857611628611eac565b145b8015611657575060208301516001600160a01b0316158015611657575060408201516001600160a01b0316155b801561167c57508160a001516001600160a01b03168360a001516001600160a01b0316145b801561168c575042836101000151105b80156115e857505061010001514211919050565b60e0808201519083015160009190818110156116bb57600080fd5b60208401516000906001600160a01b031633141561189f5760608501516001600160a01b0316156117f7576103e8600754836116f79190612497565b61170191906124cc565b905060006103e8600854846117169190612497565b61172091906124cc565b905060008161172f84866124e0565b61173991906124e0565b60208801516040519192506001600160a01b03169082156108fc029083906000818181858888f19350505050158015611776573d6000803e3d6000fd5b5086606001516001600160a01b03166108fc839081150290604051600060405180830381858888f193505050501580156117b4573d6000803e3d6000fd5b506003546040516001600160a01b039091169084156108fc029085906000818181858888f193505050501580156117ef573d6000803e3d6000fd5b505050611989565b6103e8600654836118089190612497565b61181291906124cc565b9050600061182082846124e0565b60208701516040519192506001600160a01b03169082156108fc029083906000818181858888f1935050505015801561185d573d6000803e3d6000fd5b506003546040516001600160a01b039091169083156108fc029084906000818181858888f19350505050158015611898573d6000803e3d6000fd5b5050611989565b60408601516001600160a01b031633141561198957813410156118c157600080fd5b60608501516001600160a01b0316156118e5576103e8600754836116f79190612497565b6103e8600654836118f69190612497565b61190091906124cc565b9050600061190e82846124e0565b60208701516040519192506001600160a01b03169082156108fc029083906000818181858888f1935050505015801561194b573d6000803e3d6000fd5b506003546040516001600160a01b039091169083156108fc029084906000818181858888f19350505050158015611986573d6000803e3d6000fd5b50505b50949350505050565b805b82525050565b602081016107a68284611992565b634e487b7160e01b600052604160045260246000fd5b601f19601f830116810181811067ffffffffffffffff821117156119e4576119e46119a8565b6040525050565b60006119f660405190565b9050611a0282826119be565b919050565b60006001600160a01b0382166107a6565b611a2181611a07565b811461127457600080fd5b80356107a681611a18565b6002811061127457600080fd5b80356107a681611a37565b80611a21565b80356107a681611a4f565b60006101608284031215611a7657611a76600080fd5b611a816101606119eb565b90506000611a8f8484611a2c565b8252506020611aa084848301611a2c565b6020830152506040611ab484828501611a2c565b6040830152506060611ac884828501611a2c565b6060830152506080611adc84828501611a44565b60808301525060a0611af084828501611a2c565b60a08301525060c0611b0484828501611a55565b60c08301525060e0611b1884828501611a55565b60e083015250610100611b2d84828501611a55565b61010083015250610120611b4384828501611a55565b61012083015250610140611b5984828501611a2c565b6101408301525092915050565b6000806102c08385031215611b7d57611b7d600080fd5b6000611b898585611a60565b925050610160611b9b85828601611a60565b9150509250929050565b60006107a682611a07565b60006107a682611ba5565b61199481611bb0565b602081016107a68284611bbb565b60006101608284031215611be857611be8600080fd5b6000611bf48484611a60565b949350505050565b60008083601f840112611c1157611c11600080fd5b50813567ffffffffffffffff811115611c2c57611c2c600080fd5b602083019150836001820283011115611c4757611c47600080fd5b9250929050565b600080600080600060808688031215611c6957611c69600080fd5b6000611c758888611a2c565b9550506020611c8688828901611a2c565b9450506040611c9788828901611a55565b935050606086013567ffffffffffffffff811115611cb757611cb7600080fd5b611cc388828901611bfc565b92509250509295509295909350565b6001600160e01b03198116611994565b602081016107a68284611cd2565b600060208284031215611d0557611d05600080fd5b6000611bf48484611a2c565b600060208284031215611d2657611d26600080fd5b6000611bf48484611a55565b61199481611a07565b602081016107a68284611d32565b801515611994565b602081016107a68284611d49565b60ff8116611a21565b80356107a681611d5f565b600060608284031215611d8857611d88600080fd5b611d9260606119eb565b90506000611da08484611d68565b8252506020611db184848301611a55565b6020830152506040611dc584828501611a55565b60408301525092915050565b6000806000806103808587031215611deb57611deb600080fd5b6000611df78787611a60565b945050610160611e0987828801611d73565b9350506101c0611e1b87828801611a60565b925050610320611e2d87828801611d73565b91505092959194509250565b6000806101c08385031215611e5057611e50600080fd5b6000611e5c8585611a60565b925050610160611b9b85828601611d73565b601481526000602082017339b2b73232b91036bab9ba103132903a30b5b2b960611b815291505b5060200190565b602080825281016107a681611e6e565b634e487b7160e01b600052602160045260246000fd5b6101008101611ed1828b611bbb565b611ede602083018a611bbb565b611eeb6040830189611d32565b611ef86060830188611992565b611f056080830187611992565b611f1260a0830186611992565b611f1f60c0830185611992565b611f2c60e0830184611d32565b9998505050505050505050565b611a2181611ba5565b80516107a681611f39565b600060208284031215611f6257611f62600080fd5b6000611bf48484611f42565b80516107a681611a18565b600060208284031215611f8e57611f8e600080fd5b6000611bf48484611f6e565b601481526000602082017339b2b73232b91036bab9ba1031329036b0b5b2b960611b81529150611e95565b602080825281016107a681611f9a565b60808101611fe38287611d32565b611ff06020830186611bbb565b611ffd6040830185611d32565b6109336060830184611992565b801515611a21565b80516107a68161200a565b60006020828403121561203257612032600080fd5b6000611bf48484612012565b601081526000602082016f4661696c656420746f20657363726f7760801b81529150611e95565b602080825281016107a68161203e565b60208082527f4f776e61626c653a2063616c6c6572206973206e6f7420746865206f776e657291019081526000611e95565b602080825281016107a681612075565b601f81526000602082017f5265656e7472616e637947756172643a207265656e7472616e742063616c6c0081529150611e95565b602080825281016107a6816120b7565b608081016121098287611d32565b6121166020830186611d32565b611ffd6040830185611bbb565b600d81526000602082016c34b73b30b634b2103a30b5b2b960991b81529150611e95565b602080825281016107a681612123565b600d81526000602082016c34b73b30b634b21036b0b5b2b960991b81529150611e95565b602080825281016107a681612157565b60148152600060208201730dee4c8cae440c8decae640dcdee840dac2e8c6d60631b81529150611e95565b602080825281016107a68161218b565b604081016121d48285611d32565b6115e86020830184611992565b601b81526000602082017f4661696c656420746f207472616e7366657220746f206275796572000000000081529150611e95565b602080825281016107a6816121e1565b606081016122338286611bbb565b6122406020830185611992565b611bf46040830184611d32565b602381526000602082017f4661696c656420746f207472616e73666572206261636b2066726f6d20657363815262726f7760e81b602082015291505b5060400190565b602080825281016107a68161224d565b602681526000602082017f4f776e61626c653a206e6577206f776e657220697320746865207a65726f206181526564647265737360d01b60208201529150612289565b602080825281016107a6816122a0565b60006107a68260601b90565b60006107a6826122f3565b61199461231682611a07565b6122ff565b60005b8381101561233657818101518382015260200161231e565b83811115612345576000848401525b50505050565b6000612355825190565b61236381856020860161231b565b9290920192915050565b80611994565b600061237f828e61230a565b60148201915061238f828d61230a565b60148201915061239f828c61230a565b6014820191506123af828b61234b565b91506123bb828a61230a565b6014820191506123cb828961236d565b6020820191506123db828861236d565b6020820191506123eb828761236d565b6020820191506123fb828661236d565b60208201915061240b828561230a565b60148201915061241b828461230a565b506014019b9a5050505050505050505050565b600061243a828561234b565b9150612446828461236d565b5060200192915050565b60ff8116611994565b608081016124678287611992565b6124746020830186612450565b611ffd6040830185611992565b634e487b7160e01b600052601160045260246000fd5b60008160001904831182151516156124b1576124b1612481565b500290565b634e487b7160e01b600052601260045260246000fd5b6000826124db576124db6124b6565b500490565b6000828210156124f2576124f2612481565b50039056fea26469706673582212200834b97f203c78488f430fa1193bd46d50e4f9ac8847e5da17dbd2d2b7e9f55564736f6c634300080b0033",
  "linkReferences": {},
  "deployedLinkReferences": {}
}