{
  "contracts/Util.sol": {
    "Util": {
      "abi": [
        {
          "inputs": [
            {
              "internalType": "address",
              "name": "_addr",
              "type": "address"
            }
          ],
          "name": "addressToString",
          "outputs": [
            {
              "internalType": "string",
              "name": "",
              "type": "string"
            }
          ],
          "stateMutability": "pure",
          "type": "function"
        },
        {
          "inputs": [
            {
              "internalType": "bytes32",
              "name": "_bytes32",
              "type": "bytes32"
            }
          ],
          "name": "bytes32ToString",
          "outputs": [
            {
              "internalType": "string",
              "name": "",
              "type": "string"
            }
          ],
          "stateMutability": "pure",
          "type": "function"
        }
      ],
      "evm": {
        "bytecode": {
          "linkReferences": {},
          "object": "6105e361003a600b82828239805160001a60731461002d57634e487b7160e01b600052600060045260246000fd5b30600052607381538281f3fe73000000000000000000000000000000000000000030146080604052600436106100405760003560e01c80635e57966d146100455780639201de551461006e575b600080fd5b6100586100533660046103f6565b610081565b6040516100659190610481565b60405180910390f35b61005861007c3660046104a3565b61026c565b604080518082018252601081526f181899199a1a9b1b9c1cb0b131b232b360811b60208201528151603380825260608281019094526001600160a01b0385169291600091602082018180368337019050509050600360fc1b816000815181106100ec576100ec6104c4565b60200101906001600160f81b031916908160001a905350600f60fb1b8160018151811061011b5761011b6104c4565b60200101906001600160f81b031916908160001a90535060005b6014811015610263578260048561014d84600c6104f0565b6020811061015d5761015d6104c4565b1a60f81b6001600160f81b031916901c60f81c60ff1681518110610183576101836104c4565b01602001516001600160f81b0319168261019e836002610508565b6101a99060026104f0565b815181106101b9576101b96104c4565b60200101906001600160f81b031916908160001a90535082846101dd83600c6104f0565b602081106101ed576101ed6104c4565b825191901a600f16908110610204576102046104c4565b01602001516001600160f81b0319168261021f836002610508565b61022a9060036104f0565b8151811061023a5761023a6104c4565b60200101906001600160f81b031916908160001a9053508061025b81610527565b915050610135565b50949350505050565b6040805181815260608181018352916000918291602082018180368337019050509050600091505b80518260ff16101561038d5760006004856102b0600286610558565b60ff16602081106102c3576102c36104c4565b1a60f81b6001600160f81b031916901c60f81c90506000856002856102e89190610558565b60ff16602081106102fb576102fb6104c4565b1a600f16905061030a82610394565b838560ff168151811061031f5761031f6104c4565b60200101906001600160f81b031916908160001a905350610341846001610573565b935061034c81610394565b838560ff1681518110610361576103616104c4565b60200101906001600160f81b031916908160001a9053505050818061038590610594565b925050610294565b9392505050565b6000600a8260ff1610156103b6576103ad826030610573565b60f81b92915050565b6103ad826057610573565b60006001600160a01b0382165b92915050565b6103dd816103c1565b81146103e857600080fd5b50565b80356103ce816103d4565b60006020828403121561040b5761040b600080fd5b600061041784846103eb565b949350505050565b60005b8381101561043a578181015183820152602001610422565b83811115610449576000848401525b50505050565b6000610459825190565b80845260208401935061047081856020860161041f565b601f01601f19169290920192915050565b6020808252810161038d818461044f565b806103dd565b80356103ce81610492565b6000602082840312156104b8576104b8600080fd5b60006104178484610498565b634e487b7160e01b600052603260045260246000fd5b634e487b7160e01b600052601160045260246000fd5b60008219821115610503576105036104da565b500190565b6000816000190483118215151615610522576105226104da565b500290565b600060001982141561053b5761053b6104da565b5060010190565b634e487b7160e01b600052601260045260246000fd5b60ff918216911660008261056e5761056e610542565b500490565b600060ff8216915060ff831692508260ff03821115610503576105036104da565b600060ff8216915060ff82141561053b5761053b6104da56fea264697066735822122002aa027140504a8ecc4e083e32ce6467e89f3c7c2ce2464120be70309dafcfbf64736f6c634300080b0033",
          "opcodes": "PUSH2 0x5E3 PUSH2 0x3A PUSH1 0xB DUP3 DUP3 DUP3 CODECOPY DUP1 MLOAD PUSH1 0x0 BYTE PUSH1 0x73 EQ PUSH2 0x2D JUMPI PUSH4 0x4E487B71 PUSH1 0xE0 SHL PUSH1 0x0 MSTORE PUSH1 0x0 PUSH1 0x4 MSTORE PUSH1 0x24 PUSH1 0x0 REVERT JUMPDEST ADDRESS PUSH1 0x0 MSTORE PUSH1 0x73 DUP2 MSTORE8 DUP3 DUP2 RETURN INVALID PUSH20 0x0 ADDRESS EQ PUSH1 0x80 PUSH1 0x40 MSTORE PUSH1 0x4 CALLDATASIZE LT PUSH2 0x40 JUMPI PUSH1 0x0 CALLDATALOAD PUSH1 0xE0 SHR DUP1 PUSH4 0x5E57966D EQ PUSH2 0x45 JUMPI DUP1 PUSH4 0x9201DE55 EQ PUSH2 0x6E JUMPI JUMPDEST PUSH1 0x0 DUP1 REVERT JUMPDEST PUSH2 0x58 PUSH2 0x53 CALLDATASIZE PUSH1 0x4 PUSH2 0x3F6 JUMP JUMPDEST PUSH2 0x81 JUMP JUMPDEST PUSH1 0x40 MLOAD PUSH2 0x65 SWAP2 SWAP1 PUSH2 0x481 JUMP JUMPDEST PUSH1 0x40 MLOAD DUP1 SWAP2 SUB SWAP1 RETURN JUMPDEST PUSH2 0x58 PUSH2 0x7C CALLDATASIZE PUSH1 0x4 PUSH2 0x4A3 JUMP JUMPDEST PUSH2 0x26C JUMP JUMPDEST PUSH1 0x40 DUP1 MLOAD DUP1 DUP3 ADD DUP3 MSTORE PUSH1 0x10 DUP2 MSTORE PUSH16 0x181899199A1A9B1B9C1CB0B131B232B3 PUSH1 0x81 SHL PUSH1 0x20 DUP3 ADD MSTORE DUP2 MLOAD PUSH1 0x33 DUP1 DUP3 MSTORE PUSH1 0x60 DUP3 DUP2 ADD SWAP1 SWAP5 MSTORE PUSH1 0x1 PUSH1 0x1 PUSH1 0xA0 SHL SUB DUP6 AND SWAP3 SWAP2 PUSH1 0x0 SWAP2 PUSH1 0x20 DUP3 ADD DUP2 DUP1 CALLDATASIZE DUP4 CALLDATACOPY ADD SWAP1 POP POP SWAP1 POP PUSH1 0x3 PUSH1 0xFC SHL DUP2 PUSH1 0x0 DUP2 MLOAD DUP2 LT PUSH2 0xEC JUMPI PUSH2 0xEC PUSH2 0x4C4 JUMP JUMPDEST PUSH1 0x20 ADD ADD SWAP1 PUSH1 0x1 PUSH1 0x1 PUSH1 0xF8 SHL SUB NOT AND SWAP1 DUP2 PUSH1 0x0 BYTE SWAP1 MSTORE8 POP PUSH1 0xF PUSH1 0xFB SHL DUP2 PUSH1 0x1 DUP2 MLOAD DUP2 LT PUSH2 0x11B JUMPI PUSH2 0x11B PUSH2 0x4C4 JUMP JUMPDEST PUSH1 0x20 ADD ADD SWAP1 PUSH1 0x1 PUSH1 0x1 PUSH1 0xF8 SHL SUB NOT AND SWAP1 DUP2 PUSH1 0x0 BYTE SWAP1 MSTORE8 POP PUSH1 0x0 JUMPDEST PUSH1 0x14 DUP2 LT ISZERO PUSH2 0x263 JUMPI DUP3 PUSH1 0x4 DUP6 PUSH2 0x14D DUP5 PUSH1 0xC PUSH2 0x4F0 JUMP JUMPDEST PUSH1 0x20 DUP2 LT PUSH2 0x15D JUMPI PUSH2 0x15D PUSH2 0x4C4 JUMP JUMPDEST BYTE PUSH1 0xF8 SHL PUSH1 0x1 PUSH1 0x1 PUSH1 0xF8 SHL SUB NOT AND SWAP1 SHR PUSH1 0xF8 SHR PUSH1 0xFF AND DUP2 MLOAD DUP2 LT PUSH2 0x183 JUMPI PUSH2 0x183 PUSH2 0x4C4 JUMP JUMPDEST ADD PUSH1 0x20 ADD MLOAD PUSH1 0x1 PUSH1 0x1 PUSH1 0xF8 SHL SUB NOT AND DUP3 PUSH2 0x19E DUP4 PUSH1 0x2 PUSH2 0x508 JUMP JUMPDEST PUSH2 0x1A9 SWAP1 PUSH1 0x2 PUSH2 0x4F0 JUMP JUMPDEST DUP2 MLOAD DUP2 LT PUSH2 0x1B9 JUMPI PUSH2 0x1B9 PUSH2 0x4C4 JUMP JUMPDEST PUSH1 0x20 ADD ADD SWAP1 PUSH1 0x1 PUSH1 0x1 PUSH1 0xF8 SHL SUB NOT AND SWAP1 DUP2 PUSH1 0x0 BYTE SWAP1 MSTORE8 POP DUP3 DUP5 PUSH2 0x1DD DUP4 PUSH1 0xC PUSH2 0x4F0 JUMP JUMPDEST PUSH1 0x20 DUP2 LT PUSH2 0x1ED JUMPI PUSH2 0x1ED PUSH2 0x4C4 JUMP JUMPDEST DUP3 MLOAD SWAP2 SWAP1 BYTE PUSH1 0xF AND SWAP1 DUP2 LT PUSH2 0x204 JUMPI PUSH2 0x204 PUSH2 0x4C4 JUMP JUMPDEST ADD PUSH1 0x20 ADD MLOAD PUSH1 0x1 PUSH1 0x1 PUSH1 0xF8 SHL SUB NOT AND DUP3 PUSH2 0x21F DUP4 PUSH1 0x2 PUSH2 0x508 JUMP JUMPDEST PUSH2 0x22A SWAP1 PUSH1 0x3 PUSH2 0x4F0 JUMP JUMPDEST DUP2 MLOAD DUP2 LT PUSH2 0x23A JUMPI PUSH2 0x23A PUSH2 0x4C4 JUMP JUMPDEST PUSH1 0x20 ADD ADD SWAP1 PUSH1 0x1 PUSH1 0x1 PUSH1 0xF8 SHL SUB NOT AND SWAP1 DUP2 PUSH1 0x0 BYTE SWAP1 MSTORE8 POP DUP1 PUSH2 0x25B DUP2 PUSH2 0x527 JUMP JUMPDEST SWAP2 POP POP PUSH2 0x135 JUMP JUMPDEST POP SWAP5 SWAP4 POP POP POP POP JUMP JUMPDEST PUSH1 0x40 DUP1 MLOAD DUP2 DUP2 MSTORE PUSH1 0x60 DUP2 DUP2 ADD DUP4 MSTORE SWAP2 PUSH1 0x0 SWAP2 DUP3 SWAP2 PUSH1 0x20 DUP3 ADD DUP2 DUP1 CALLDATASIZE DUP4 CALLDATACOPY ADD SWAP1 POP POP SWAP1 POP PUSH1 0x0 SWAP2 POP JUMPDEST DUP1 MLOAD DUP3 PUSH1 0xFF AND LT ISZERO PUSH2 0x38D JUMPI PUSH1 0x0 PUSH1 0x4 DUP6 PUSH2 0x2B0 PUSH1 0x2 DUP7 PUSH2 0x558 JUMP JUMPDEST PUSH1 0xFF AND PUSH1 0x20 DUP2 LT PUSH2 0x2C3 JUMPI PUSH2 0x2C3 PUSH2 0x4C4 JUMP JUMPDEST BYTE PUSH1 0xF8 SHL PUSH1 0x1 PUSH1 0x1 PUSH1 0xF8 SHL SUB NOT AND SWAP1 SHR PUSH1 0xF8 SHR SWAP1 POP PUSH1 0x0 DUP6 PUSH1 0x2 DUP6 PUSH2 0x2E8 SWAP2 SWAP1 PUSH2 0x558 JUMP JUMPDEST PUSH1 0xFF AND PUSH1 0x20 DUP2 LT PUSH2 0x2FB JUMPI PUSH2 0x2FB PUSH2 0x4C4 JUMP JUMPDEST BYTE PUSH1 0xF AND SWAP1 POP PUSH2 0x30A DUP3 PUSH2 0x394 JUMP JUMPDEST DUP4 DUP6 PUSH1 0xFF AND DUP2 MLOAD DUP2 LT PUSH2 0x31F JUMPI PUSH2 0x31F PUSH2 0x4C4 JUMP JUMPDEST PUSH1 0x20 ADD ADD SWAP1 PUSH1 0x1 PUSH1 0x1 PUSH1 0xF8 SHL SUB NOT AND SWAP1 DUP2 PUSH1 0x0 BYTE SWAP1 MSTORE8 POP PUSH2 0x341 DUP5 PUSH1 0x1 PUSH2 0x573 JUMP JUMPDEST SWAP4 POP PUSH2 0x34C DUP2 PUSH2 0x394 JUMP JUMPDEST DUP4 DUP6 PUSH1 0xFF AND DUP2 MLOAD DUP2 LT PUSH2 0x361 JUMPI PUSH2 0x361 PUSH2 0x4C4 JUMP JUMPDEST PUSH1 0x20 ADD ADD SWAP1 PUSH1 0x1 PUSH1 0x1 PUSH1 0xF8 SHL SUB NOT AND SWAP1 DUP2 PUSH1 0x0 BYTE SWAP1 MSTORE8 POP POP POP DUP2 DUP1 PUSH2 0x385 SWAP1 PUSH2 0x594 JUMP JUMPDEST SWAP3 POP POP PUSH2 0x294 JUMP JUMPDEST SWAP4 SWAP3 POP POP POP JUMP JUMPDEST PUSH1 0x0 PUSH1 0xA DUP3 PUSH1 0xFF AND LT ISZERO PUSH2 0x3B6 JUMPI PUSH2 0x3AD DUP3 PUSH1 0x30 PUSH2 0x573 JUMP JUMPDEST PUSH1 0xF8 SHL SWAP3 SWAP2 POP POP JUMP JUMPDEST PUSH2 0x3AD DUP3 PUSH1 0x57 PUSH2 0x573 JUMP JUMPDEST PUSH1 0x0 PUSH1 0x1 PUSH1 0x1 PUSH1 0xA0 SHL SUB DUP3 AND JUMPDEST SWAP3 SWAP2 POP POP JUMP JUMPDEST PUSH2 0x3DD DUP2 PUSH2 0x3C1 JUMP JUMPDEST DUP2 EQ PUSH2 0x3E8 JUMPI PUSH1 0x0 DUP1 REVERT JUMPDEST POP JUMP JUMPDEST DUP1 CALLDATALOAD PUSH2 0x3CE DUP2 PUSH2 0x3D4 JUMP JUMPDEST PUSH1 0x0 PUSH1 0x20 DUP3 DUP5 SUB SLT ISZERO PUSH2 0x40B JUMPI PUSH2 0x40B PUSH1 0x0 DUP1 REVERT JUMPDEST PUSH1 0x0 PUSH2 0x417 DUP5 DUP5 PUSH2 0x3EB JUMP JUMPDEST SWAP5 SWAP4 POP POP POP POP JUMP JUMPDEST PUSH1 0x0 JUMPDEST DUP4 DUP2 LT ISZERO PUSH2 0x43A JUMPI DUP2 DUP2 ADD MLOAD DUP4 DUP3 ADD MSTORE PUSH1 0x20 ADD PUSH2 0x422 JUMP JUMPDEST DUP4 DUP2 GT ISZERO PUSH2 0x449 JUMPI PUSH1 0x0 DUP5 DUP5 ADD MSTORE JUMPDEST POP POP POP POP JUMP JUMPDEST PUSH1 0x0 PUSH2 0x459 DUP3 MLOAD SWAP1 JUMP JUMPDEST DUP1 DUP5 MSTORE PUSH1 0x20 DUP5 ADD SWAP4 POP PUSH2 0x470 DUP2 DUP6 PUSH1 0x20 DUP7 ADD PUSH2 0x41F JUMP JUMPDEST PUSH1 0x1F ADD PUSH1 0x1F NOT AND SWAP3 SWAP1 SWAP3 ADD SWAP3 SWAP2 POP POP JUMP JUMPDEST PUSH1 0x20 DUP1 DUP3 MSTORE DUP2 ADD PUSH2 0x38D DUP2 DUP5 PUSH2 0x44F JUMP JUMPDEST DUP1 PUSH2 0x3DD JUMP JUMPDEST DUP1 CALLDATALOAD PUSH2 0x3CE DUP2 PUSH2 0x492 JUMP JUMPDEST PUSH1 0x0 PUSH1 0x20 DUP3 DUP5 SUB SLT ISZERO PUSH2 0x4B8 JUMPI PUSH2 0x4B8 PUSH1 0x0 DUP1 REVERT JUMPDEST PUSH1 0x0 PUSH2 0x417 DUP5 DUP5 PUSH2 0x498 JUMP JUMPDEST PUSH4 0x4E487B71 PUSH1 0xE0 SHL PUSH1 0x0 MSTORE PUSH1 0x32 PUSH1 0x4 MSTORE PUSH1 0x24 PUSH1 0x0 REVERT JUMPDEST PUSH4 0x4E487B71 PUSH1 0xE0 SHL PUSH1 0x0 MSTORE PUSH1 0x11 PUSH1 0x4 MSTORE PUSH1 0x24 PUSH1 0x0 REVERT JUMPDEST PUSH1 0x0 DUP3 NOT DUP3 GT ISZERO PUSH2 0x503 JUMPI PUSH2 0x503 PUSH2 0x4DA JUMP JUMPDEST POP ADD SWAP1 JUMP JUMPDEST PUSH1 0x0 DUP2 PUSH1 0x0 NOT DIV DUP4 GT DUP3 ISZERO ISZERO AND ISZERO PUSH2 0x522 JUMPI PUSH2 0x522 PUSH2 0x4DA JUMP JUMPDEST POP MUL SWAP1 JUMP JUMPDEST PUSH1 0x0 PUSH1 0x0 NOT DUP3 EQ ISZERO PUSH2 0x53B JUMPI PUSH2 0x53B PUSH2 0x4DA JUMP JUMPDEST POP PUSH1 0x1 ADD SWAP1 JUMP JUMPDEST PUSH4 0x4E487B71 PUSH1 0xE0 SHL PUSH1 0x0 MSTORE PUSH1 0x12 PUSH1 0x4 MSTORE PUSH1 0x24 PUSH1 0x0 REVERT JUMPDEST PUSH1 0xFF SWAP2 DUP3 AND SWAP2 AND PUSH1 0x0 DUP3 PUSH2 0x56E JUMPI PUSH2 0x56E PUSH2 0x542 JUMP JUMPDEST POP DIV SWAP1 JUMP JUMPDEST PUSH1 0x0 PUSH1 0xFF DUP3 AND SWAP2 POP PUSH1 0xFF DUP4 AND SWAP3 POP DUP3 PUSH1 0xFF SUB DUP3 GT ISZERO PUSH2 0x503 JUMPI PUSH2 0x503 PUSH2 0x4DA JUMP JUMPDEST PUSH1 0x0 PUSH1 0xFF DUP3 AND SWAP2 POP PUSH1 0xFF DUP3 EQ ISZERO PUSH2 0x53B JUMPI PUSH2 0x53B PUSH2 0x4DA JUMP INVALID LOG2 PUSH5 0x6970667358 0x22 SLT KECCAK256 MUL 0xAA MUL PUSH18 0x40504A8ECC4E083E32CE6467E89F3C7C2CE2 CHAINID COINBASE KECCAK256 0xBE PUSH17 0x309DAFCFBF64736F6C634300080B003300 "
        },
        "methodIdentifiers": {
          "addressToString(address)": "5e57966d",
          "bytes32ToString(bytes32)": "9201de55"
        }
      }
    }
  }
}