{
  "contracts/TestUtil.sol": {
    "TestUtil": {
      "abi": [
        {
          "inputs": [
            {
              "internalType": "bytes32",
              "name": "message",
              "type": "bytes32"
            }
          ],
          "name": "testBytes32ToString",
          "outputs": [
            {
              "internalType": "string",
              "name": "",
              "type": "string"
            }
          ],
          "stateMutability": "pure",
          "type": "function"
        }
      ],
      "evm": {
        "bytecode": {
          "linkReferences": {
            "contracts/Util.sol": {
              "Util": [
                {
                  "length": 20,
                  "start": 139
                }
              ]
            }
          },
          "object": "608060405234801561001057600080fd5b506102f4806100206000396000f3fe608060405234801561001057600080fd5b506004361061002b5760003560e01c80630a21ef9514610030575b600080fd5b61004361003e3660046100e5565b610059565b6040516100509190610170565b60405180910390f35b604051639201de5560e01b815260609073__$f781bb3d3060cc7c00f7d655d3b188f1f9$__90639201de5590610093908590600401610188565b600060405180830381865af41580156100b0573d6000803e3d6000fd5b505050506040513d6000823e601f3d908101601f191682016040526100d89190810190610283565b92915050565b80356100d8565b6000602082840312156100fa576100fa600080fd5b600061010684846100de565b949350505050565b60005b83811015610129578181015183820152602001610111565b83811115610138576000848401525b50505050565b6000610148825190565b80845260208401935061015f81856020860161010e565b601f01601f19169290920192915050565b60208082528101610181818461013e565b9392505050565b818152602081016100d8565b634e487b7160e01b600052604160045260246000fd5b601f19601f830116810181811067ffffffffffffffff821117156101d0576101d0610194565b6040525050565b60006101e260405190565b90506101ee82826101aa565b919050565b600067ffffffffffffffff82111561020d5761020d610194565b601f19601f83011660200192915050565b600061023161022c846101f3565b6101d7565b90508281526020810184848401111561024c5761024c600080fd5b61025784828561010e565b509392505050565b600082601f83011261027357610273600080fd5b815161010684826020860161021e565b60006020828403121561029857610298600080fd5b815167ffffffffffffffff8111156102b2576102b2600080fd5b6101068482850161025f56fea2646970667358221220d9cbf68185b48eee3a3c9f11b68d32c3934623245ef57ee5e596cb03eea47e4d64736f6c634300080b0033",
          "opcodes": "PUSH1 0x80 PUSH1 0x40 MSTORE CALLVALUE DUP1 ISZERO PUSH2 0x10 JUMPI PUSH1 0x0 DUP1 REVERT JUMPDEST POP PUSH2 0x2F4 DUP1 PUSH2 0x20 PUSH1 0x0 CODECOPY PUSH1 0x0 RETURN INVALID PUSH1 0x80 PUSH1 0x40 MSTORE CALLVALUE DUP1 ISZERO PUSH2 0x10 JUMPI PUSH1 0x0 DUP1 REVERT JUMPDEST POP PUSH1 0x4 CALLDATASIZE LT PUSH2 0x2B JUMPI PUSH1 0x0 CALLDATALOAD PUSH1 0xE0 SHR DUP1 PUSH4 0xA21EF95 EQ PUSH2 0x30 JUMPI JUMPDEST PUSH1 0x0 DUP1 REVERT JUMPDEST PUSH2 0x43 PUSH2 0x3E CALLDATASIZE PUSH1 0x4 PUSH2 0xE5 JUMP JUMPDEST PUSH2 0x59 JUMP JUMPDEST PUSH1 0x40 MLOAD PUSH2 0x50 SWAP2 SWAP1 PUSH2 0x170 JUMP JUMPDEST PUSH1 0x40 MLOAD DUP1 SWAP2 SUB SWAP1 RETURN JUMPDEST PUSH1 0x40 MLOAD PUSH4 0x9201DE55 PUSH1 0xE0 SHL DUP2 MSTORE PUSH1 0x60 SWAP1 PUSH20 0x0 SWAP1 PUSH4 0x9201DE55 SWAP1 PUSH2 0x93 SWAP1 DUP6 SWAP1 PUSH1 0x4 ADD PUSH2 0x188 JUMP JUMPDEST PUSH1 0x0 PUSH1 0x40 MLOAD DUP1 DUP4 SUB DUP2 DUP7 GAS DELEGATECALL ISZERO DUP1 ISZERO PUSH2 0xB0 JUMPI RETURNDATASIZE PUSH1 0x0 DUP1 RETURNDATACOPY RETURNDATASIZE PUSH1 0x0 REVERT JUMPDEST POP POP POP POP PUSH1 0x40 MLOAD RETURNDATASIZE PUSH1 0x0 DUP3 RETURNDATACOPY PUSH1 0x1F RETURNDATASIZE SWAP1 DUP2 ADD PUSH1 0x1F NOT AND DUP3 ADD PUSH1 0x40 MSTORE PUSH2 0xD8 SWAP2 SWAP1 DUP2 ADD SWAP1 PUSH2 0x283 JUMP JUMPDEST SWAP3 SWAP2 POP POP JUMP JUMPDEST DUP1 CALLDATALOAD PUSH2 0xD8 JUMP JUMPDEST PUSH1 0x0 PUSH1 0x20 DUP3 DUP5 SUB SLT ISZERO PUSH2 0xFA JUMPI PUSH2 0xFA PUSH1 0x0 DUP1 REVERT JUMPDEST PUSH1 0x0 PUSH2 0x106 DUP5 DUP5 PUSH2 0xDE JUMP JUMPDEST SWAP5 SWAP4 POP POP POP POP JUMP JUMPDEST PUSH1 0x0 JUMPDEST DUP4 DUP2 LT ISZERO PUSH2 0x129 JUMPI DUP2 DUP2 ADD MLOAD DUP4 DUP3 ADD MSTORE PUSH1 0x20 ADD PUSH2 0x111 JUMP JUMPDEST DUP4 DUP2 GT ISZERO PUSH2 0x138 JUMPI PUSH1 0x0 DUP5 DUP5 ADD MSTORE JUMPDEST POP POP POP POP JUMP JUMPDEST PUSH1 0x0 PUSH2 0x148 DUP3 MLOAD SWAP1 JUMP JUMPDEST DUP1 DUP5 MSTORE PUSH1 0x20 DUP5 ADD SWAP4 POP PUSH2 0x15F DUP2 DUP6 PUSH1 0x20 DUP7 ADD PUSH2 0x10E JUMP JUMPDEST PUSH1 0x1F ADD PUSH1 0x1F NOT AND SWAP3 SWAP1 SWAP3 ADD SWAP3 SWAP2 POP POP JUMP JUMPDEST PUSH1 0x20 DUP1 DUP3 MSTORE DUP2 ADD PUSH2 0x181 DUP2 DUP5 PUSH2 0x13E JUMP JUMPDEST SWAP4 SWAP3 POP POP POP JUMP JUMPDEST DUP2 DUP2 MSTORE PUSH1 0x20 DUP2 ADD PUSH2 0xD8 JUMP JUMPDEST PUSH4 0x4E487B71 PUSH1 0xE0 SHL PUSH1 0x0 MSTORE PUSH1 0x41 PUSH1 0x4 MSTORE PUSH1 0x24 PUSH1 0x0 REVERT JUMPDEST PUSH1 0x1F NOT PUSH1 0x1F DUP4 ADD AND DUP2 ADD DUP2 DUP2 LT PUSH8 0xFFFFFFFFFFFFFFFF DUP3 GT OR ISZERO PUSH2 0x1D0 JUMPI PUSH2 0x1D0 PUSH2 0x194 JUMP JUMPDEST PUSH1 0x40 MSTORE POP POP JUMP JUMPDEST PUSH1 0x0 PUSH2 0x1E2 PUSH1 0x40 MLOAD SWAP1 JUMP JUMPDEST SWAP1 POP PUSH2 0x1EE DUP3 DUP3 PUSH2 0x1AA JUMP JUMPDEST SWAP2 SWAP1 POP JUMP JUMPDEST PUSH1 0x0 PUSH8 0xFFFFFFFFFFFFFFFF DUP3 GT ISZERO PUSH2 0x20D JUMPI PUSH2 0x20D PUSH2 0x194 JUMP JUMPDEST PUSH1 0x1F NOT PUSH1 0x1F DUP4 ADD AND PUSH1 0x20 ADD SWAP3 SWAP2 POP POP JUMP JUMPDEST PUSH1 0x0 PUSH2 0x231 PUSH2 0x22C DUP5 PUSH2 0x1F3 JUMP JUMPDEST PUSH2 0x1D7 JUMP JUMPDEST SWAP1 POP DUP3 DUP2 MSTORE PUSH1 0x20 DUP2 ADD DUP5 DUP5 DUP5 ADD GT ISZERO PUSH2 0x24C JUMPI PUSH2 0x24C PUSH1 0x0 DUP1 REVERT JUMPDEST PUSH2 0x257 DUP5 DUP3 DUP6 PUSH2 0x10E JUMP JUMPDEST POP SWAP4 SWAP3 POP POP POP JUMP JUMPDEST PUSH1 0x0 DUP3 PUSH1 0x1F DUP4 ADD SLT PUSH2 0x273 JUMPI PUSH2 0x273 PUSH1 0x0 DUP1 REVERT JUMPDEST DUP2 MLOAD PUSH2 0x106 DUP5 DUP3 PUSH1 0x20 DUP7 ADD PUSH2 0x21E JUMP JUMPDEST PUSH1 0x0 PUSH1 0x20 DUP3 DUP5 SUB SLT ISZERO PUSH2 0x298 JUMPI PUSH2 0x298 PUSH1 0x0 DUP1 REVERT JUMPDEST DUP2 MLOAD PUSH8 0xFFFFFFFFFFFFFFFF DUP2 GT ISZERO PUSH2 0x2B2 JUMPI PUSH2 0x2B2 PUSH1 0x0 DUP1 REVERT JUMPDEST PUSH2 0x106 DUP5 DUP3 DUP6 ADD PUSH2 0x25F JUMP INVALID LOG2 PUSH5 0x6970667358 0x22 SLT KECCAK256 0xD9 0xCB 0xF6 DUP2 DUP6 0xB4 DUP15 0xEE GASPRICE EXTCODECOPY SWAP16 GT 0xB6 DUP14 ORIGIN 0xC3 SWAP4 CHAINID 0x23 0x24 0x5E CREATE2 PUSH31 0xE5E596CB03EEA47E4D64736F6C634300080B00330000000000000000000000 "
        },
        "methodIdentifiers": {
          "testBytes32ToString(bytes32)": "0a21ef95"
        }
      }
    }
  }
}