{
  "_format": "hh-sol-artifact-1",
  "contractName": "ExchangeProxy",
  "sourceName": "contracts/ExchangeProxy.sol",
  "abi": [
    {
      "inputs": [
        {
          "internalType": "address",
          "name": "owner",
          "type": "address"
        },
        {
          "internalType": "bytes",
          "name": "data",
          "type": "bytes"
        }
      ],
      "stateMutability": "nonpayable",
      "type": "constructor"
    },
    {
      "anonymous": false,
      "inputs": [
        {
          "indexed": false,
          "internalType": "address",
          "name": "previousOwner",
          "type": "address"
        },
        {
          "indexed": false,
          "internalType": "address",
          "name": "newOwner",
          "type": "address"
        }
      ],
      "name": "ProxyOwnershipTransferred",
      "type": "event"
    },
    {
      "anonymous": false,
      "inputs": [
        {
          "indexed": true,
          "internalType": "address",
          "name": "implementation",
          "type": "address"
        }
      ],
      "name": "Upgraded",
      "type": "event"
    },
    {
      "stateMutability": "payable",
      "type": "fallback"
    },
    {
      "inputs": [],
      "name": "getImpl",
      "outputs": [
        {
          "internalType": "address",
          "name": "",
          "type": "address"
        }
      ],
      "stateMutability": "view",
      "type": "function"
    },
    {
      "inputs": [],
      "name": "proxyOwner",
      "outputs": [
        {
          "internalType": "address",
          "name": "",
          "type": "address"
        }
      ],
      "stateMutability": "view",
      "type": "function"
    },
    {
      "inputs": [
        {
          "internalType": "address",
          "name": "newOwner",
          "type": "address"
        }
      ],
      "name": "transferProxyOwnership",
      "outputs": [],
      "stateMutability": "nonpayable",
      "type": "function"
    },
    {
      "inputs": [
        {
          "internalType": "address",
          "name": "newImpl",
          "type": "address"
        },
        {
          "internalType": "bytes",
          "name": "data",
          "type": "bytes"
        }
      ],
      "name": "upgradeTo",
      "outputs": [],
      "stateMutability": "nonpayable",
      "type": "function"
    },
    {
      "stateMutability": "payable",
      "type": "receive"
    }
  ],
  "bytecode": "0x60806040523480156200001157600080fd5b5060405162000dd638038062000dd68339810160408190526200003491620002ec565b6000604051620000449062000167565b604051809103906000f08015801562000061573d6000803e3d6000fd5b50600180546001600160a01b0319166001600160a01b03861617905590506200008a8162000103565b6000816001600160a01b031683604051620000a6919062000370565b6000604051808303816000865af19150503d8060008114620000e5576040519150601f19603f3d011682016040523d82523d6000602084013e620000ea565b606091505b5050905080620000f957600080fd5b5050505062000385565b6000546001600160a01b03828116911614156200011f57600080fd5b600080546001600160a01b0319166001600160a01b038316908117825560405190917fbc7cd75a20ee27fd9adebab32041f755214dbc6bffa90cc0225b39da2e5c2d3b91a250565b61051080620008c683390190565b60006001600160a01b0382165b92915050565b620001938162000175565b81146200019f57600080fd5b50565b8051620001828162000188565b634e487b7160e01b600052604160045260246000fd5b601f19601f83011681018181106001600160401b0382111715620001ed57620001ed620001af565b6040525050565b60006200020060405190565b90506200020e8282620001c5565b919050565b60006001600160401b038211156200022f576200022f620001af565b601f19601f83011660200192915050565b60005b838110156200025d57818101518382015260200162000243565b838111156200026d576000848401525b50505050565b60006200028a620002848462000213565b620001f4565b905082815260208101848484011115620002a757620002a7600080fd5b620002b484828562000240565b509392505050565b600082601f830112620002d257620002d2600080fd5b8151620002e484826020860162000273565b949350505050565b60008060408385031215620003045762000304600080fd5b6000620003128585620001a2565b92505060208301516001600160401b03811115620003335762000333600080fd5b6200034185828601620002bc565b9150509250929050565b600062000356825190565b6200036681856020860162000240565b9290920192915050565b60006200037e82846200034b565b9392505050565b61053180620003956000396000f3fe6080604052600436106100435760003560e01c8063025313a21461005a5780636fbc15e91461008a578063dfb80831146100aa578063f1739cae146100c857610052565b36610052576100506100e8565b005b6100506100e8565b34801561006657600080fd5b506001546001600160a01b03165b60405161008191906102cf565b60405180910390f35b34801561009657600080fd5b506100506100a5366004610402565b610104565b3480156100b657600080fd5b506000546001600160a01b0316610074565b3480156100d457600080fd5b506100506100e336600461045a565b610193565b6101026100fd6000546001600160a01b031690565b610226565b565b6001546001600160a01b0316331461011b57600080fd5b6101248261024a565b6000826001600160a01b03168260405161013e91906104cd565b6000604051808303816000865af19150503d806000811461017b576040519150601f19603f3d011682016040523d82523d6000602084013e610180565b606091505b505090508061018e57600080fd5b505050565b6001546001600160a01b031633146101aa57600080fd5b6001600160a01b0381166101bd57600080fd5b6001546040517f5a3e66efaa1e445ebd894728a69d6959842ea1e97bd79b892797106e270efcd9916101fc916001600160a01b039091169084906104e0565b60405180910390a1600180546001600160a01b0319166001600160a01b0392909216919091179055565b3660008037600080366000845af43d6000803e808015610245573d6000f35b3d6000fd5b6000546001600160a01b038281169116141561026557600080fd5b600080546001600160a01b0319166001600160a01b038316908117825560405190917fbc7cd75a20ee27fd9adebab32041f755214dbc6bffa90cc0225b39da2e5c2d3b91a250565b60006001600160a01b0382165b92915050565b6102c9816102ad565b82525050565b602081016102ba82846102c0565b6102e6816102ad565b81146102f157600080fd5b50565b80356102ba816102dd565b634e487b7160e01b600052604160045260246000fd5b601f19601f830116810181811067ffffffffffffffff8211171561033b5761033b6102ff565b6040525050565b600061034d60405190565b90506103598282610315565b919050565b600067ffffffffffffffff821115610378576103786102ff565b601f19601f83011660200192915050565b82818337506000910152565b60006103a86103a38461035e565b610342565b9050828152602081018484840111156103c3576103c3600080fd5b6103ce848285610389565b509392505050565b600082601f8301126103ea576103ea600080fd5b81356103fa848260208601610395565b949350505050565b6000806040838503121561041857610418600080fd5b600061042485856102f4565b925050602083013567ffffffffffffffff81111561044457610444600080fd5b610450858286016103d6565b9150509250929050565b60006020828403121561046f5761046f600080fd5b60006103fa84846102f4565b60005b8381101561049657818101518382015260200161047e565b838111156104a5576000848401525b50505050565b60006104b5825190565b6104c381856020860161047b565b9290920192915050565b60006104d982846104ab565b9392505050565b604081016104ee82856102c0565b6104d960208301846102c056fea26469706673582212204bf17b57c2441f1fcb3caf0d63ddc6c9f84af40cc2b013e65e9305281024dc8264736f6c634300080b0033608060405234801561001057600080fd5b506104f0806100206000396000f3fe608060405234801561001057600080fd5b50600436106100415760003560e01c8063485cc955146100465780634c93505f1461005b5780638d1bc0101461006e575b600080fd5b6100596100543660046102ce565b610097565b005b61005961006936600461031e565b61014f565b61008161007c366004610350565b6101be565b60405161008e91906103be565b60405180910390f35b600054610100900460ff16806100b0575060005460ff16155b6100d55760405162461bcd60e51b81526004016100cc906103cc565b60405180910390fd5b600054610100900460ff161580156100f7576000805461ffff19166101011790555b6000805462010000600160b01b031916620100006001600160a01b038681169190910291909117909155600180546001600160a01b031916918416919091179055801561014a576000805461ff00191690555b505050565b6000546201000090046001600160a01b0316331461016c57600080fd5b6001805460ff60a01b1916600160a01b831515021790556040517f2165014523a6f4135deffed62d70149aad59b64de5aac51e3abbcbe2a83e2f7e906101b39083906103be565b60405180910390a150565b600154600090600160a01b900460ff16156101d857600080fd5b6000546201000090046001600160a01b031633146101f557600080fd5b846001600160a01b03168484846040516024016102149392919061042d565b60408051601f198184030181529181526020820180516001600160e01b0316632142170760e11b1790525161024991906104a7565b6000604051808303816000865af19150503d8060008114610286576040519150601f19603f3d011682016040523d82523d6000602084013e61028b565b606091505b50909150505b949350505050565b60006001600160a01b0382165b92915050565b6102b581610299565b81146102c057600080fd5b50565b80356102a6816102ac565b600080604083850312156102e4576102e4600080fd5b60006102f085856102c3565b9250506020610301858286016102c3565b9150509250929050565b8015156102b5565b80356102a68161030b565b60006020828403121561033357610333600080fd5b60006102918484610313565b806102b5565b80356102a68161033f565b6000806000806080858703121561036957610369600080fd5b600061037587876102c3565b9450506020610386878288016102c3565b9350506040610397878288016102c3565b92505060606103a887828801610345565b91505092959194509250565b8015155b82525050565b602081016102a682846103b4565b602080825281016102a681602e81527f496e697469616c697a61626c653a20636f6e747261637420697320616c72656160208201526d191e481a5b9a5d1a585b1a5e995960921b604082015260600190565b6103b881610299565b806103b8565b6060810161043b828661041e565b610448602083018561041e565b6102916040830184610427565b60005b83811015610470578181015183820152602001610458565b8381111561047f576000848401525b50505050565b600061048f825190565b61049d818560208601610455565b9290920192915050565b60006104b38284610485565b939250505056fea2646970667358221220d5687353c811bf12e73cf49ca25af797f7dd759100fe1330fc52ae07ed63719e64736f6c634300080b0033",
  "linkReferences": {},
  "deployedLinkReferences": {}
}