{
  "_format": "hh-sol-artifact-1",
  "contractName": "CommissionFeeRecipent",
  "sourceName": "contracts/CommissionFeeRecipient.sol",
  "abi": [
    {
      "anonymous": false,
      "inputs": [
        {
          "indexed": true,
          "internalType": "address",
          "name": "previousOwner",
          "type": "address"
        },
        {
          "indexed": true,
          "internalType": "address",
          "name": "newOwner",
          "type": "address"
        }
      ],
      "name": "OwnershipTransferred",
      "type": "event"
    },
    {
      "anonymous": false,
      "inputs": [
        {
          "indexed": true,
          "internalType": "address",
          "name": "sender",
          "type": "address"
        },
        {
          "indexed": false,
          "internalType": "uint256",
          "name": "amount",
          "type": "uint256"
        }
      ],
      "name": "ReceivedNative",
      "type": "event"
    },
    {
      "stateMutability": "payable",
      "type": "fallback"
    },
    {
      "inputs": [],
      "name": "owner",
      "outputs": [
        {
          "internalType": "address",
          "name": "",
          "type": "address"
        }
      ],
      "stateMutability": "view",
      "type": "function"
    },
    {
      "inputs": [],
      "name": "renounceOwnership",
      "outputs": [],
      "stateMutability": "nonpayable",
      "type": "function"
    },
    {
      "inputs": [],
      "name": "totalNativeBalance",
      "outputs": [
        {
          "internalType": "uint256",
          "name": "",
          "type": "uint256"
        }
      ],
      "stateMutability": "view",
      "type": "function"
    },
    {
      "inputs": [
        {
          "internalType": "address",
          "name": "token",
          "type": "address"
        }
      ],
      "name": "totalTokenBalance",
      "outputs": [
        {
          "internalType": "uint256",
          "name": "",
          "type": "uint256"
        }
      ],
      "stateMutability": "view",
      "type": "function"
    },
    {
      "inputs": [
        {
          "internalType": "address",
          "name": "newOwner",
          "type": "address"
        }
      ],
      "name": "transferOwnership",
      "outputs": [],
      "stateMutability": "nonpayable",
      "type": "function"
    },
    {
      "inputs": [
        {
          "internalType": "uint256",
          "name": "amount",
          "type": "uint256"
        }
      ],
      "name": "withdrawNative",
      "outputs": [],
      "stateMutability": "nonpayable",
      "type": "function"
    },
    {
      "inputs": [
        {
          "internalType": "address",
          "name": "token",
          "type": "address"
        },
        {
          "internalType": "uint256",
          "name": "amount",
          "type": "uint256"
        }
      ],
      "name": "withdrawToken",
      "outputs": [],
      "stateMutability": "nonpayable",
      "type": "function"
    },
    {
      "stateMutability": "payable",
      "type": "receive"
    }
  ],
  "bytecode": "0x608060405234801561001057600080fd5b50600160005561001f33610024565b610076565b600180546001600160a01b038381166001600160a01b0319831681179093556040519116919082907f8be0079c531659141344cd1fd0a4f28419497f9722a3daafe3b4186f6b6457e090600090a35050565b610736806100856000396000f3fe6080604052600436106100745760003560e01c80638da5cb5b1161004e5780638da5cb5b146101525780639e281a9814610178578063f2fde38b14610198578063f5465992146101b8576100bc565b806308066480146100f5578063715018a61461011b57806384276d8114610132576100bc565b366100bc57336001600160a01b03167ffe7177c1206834547c7ed34e87b45a59e5f416d600afeefaedf7968eb9f9bdb5346040516100b291906104bc565b60405180910390a2005b336001600160a01b03167ffe7177c1206834547c7ed34e87b45a59e5f416d600afeefaedf7968eb9f9bdb5346040516100b291906104bc565b34801561010157600080fd5b5030315b60405161011291906104bc565b60405180910390f35b34801561012757600080fd5b506101306101d8565b005b34801561013e57600080fd5b5061013061014d3660046104e2565b610217565b34801561015e57600080fd5b506001546001600160a01b03166040516101129190610525565b34801561018457600080fd5b50610130610193366004610547565b6102ad565b3480156101a457600080fd5b506101306101b3366004610584565b610390565b3480156101c457600080fd5b506101056101d3366004610584565b6103ec565b6001546001600160a01b0316331461020b5760405162461bcd60e51b8152600401610202906105da565b60405180910390fd5b6102156000610462565b565b6002600054141561023a5760405162461bcd60e51b81526004016102029061061e565b60026000556001546001600160a01b031633146102695760405162461bcd60e51b8152600401610202906105da565b303181111561027757600080fd5b604051339082156108fc029083906000818181858888f193505050501580156102a4573d6000803e3d6000fd5b50506001600055565b600260005414156102d05760405162461bcd60e51b81526004016102029061061e565b60026000556001546001600160a01b031633146102ff5760405162461bcd60e51b8152600401610202906105da565b610308826103ec565b81111561031457600080fd5b6040516323b872dd60e01b81526001600160a01b038316906323b872dd906103449030903390869060040161062e565b6020604051808303816000875af1158015610363573d6000803e3d6000fd5b505050506040513d601f19601f820116820180604052508101906103879190610669565b6102a457600080fd5b6001546001600160a01b031633146103ba5760405162461bcd60e51b8152600401610202906105da565b6001600160a01b0381166103e05760405162461bcd60e51b81526004016102029061068a565b6103e981610462565b50565b6040516370a0823160e01b81526000906001600160a01b038316906370a082319061041b903090600401610525565b602060405180830381865afa158015610438573d6000803e3d6000fd5b505050506040513d601f19601f8201168201806040525081019061045c91906106df565b92915050565b600180546001600160a01b038381166001600160a01b0319831681179093556040519116919082907f8be0079c531659141344cd1fd0a4f28419497f9722a3daafe3b4186f6b6457e090600090a35050565b805b82525050565b6020810161045c82846104b4565b805b81146103e957600080fd5b803561045c816104ca565b6000602082840312156104f7576104f7600080fd5b600061050384846104d7565b949350505050565b60006001600160a01b03821661045c565b6104b68161050b565b6020810161045c828461051c565b6104cc8161050b565b803561045c81610533565b6000806040838503121561055d5761055d600080fd5b6000610569858561053c565b925050602061057a858286016104d7565b9150509250929050565b60006020828403121561059957610599600080fd5b6000610503848461053c565b60208082527f4f776e61626c653a2063616c6c6572206973206e6f7420746865206f776e6572910190815260005b5060200190565b6020808252810161045c816105a5565b601f81526000602082017f5265656e7472616e637947756172643a207265656e7472616e742063616c6c00815291506105d3565b6020808252810161045c816105ea565b6060810161063c828661051c565b610649602083018561051c565b61050360408301846104b4565b8015156104cc565b805161045c81610656565b60006020828403121561067e5761067e600080fd5b6000610503848461065e565b6020808252810161045c81602681527f4f776e61626c653a206e6577206f776e657220697320746865207a65726f206160208201526564647265737360d01b604082015260600190565b805161045c816104ca565b6000602082840312156106f4576106f4600080fd5b600061050384846106d456fea2646970667358221220eb072f5fc2bc256f9f92679e9c0879e925d17467348acbed5691d3b66edb1c9364736f6c634300080b0033",
  "linkReferences": {},
  "deployedLinkReferences": {}
}