{
  "_format": "hh-sol-artifact-1",
  "contractName": "ExchangeProxyImpl",
  "sourceName": "contracts/ExchangeProxyImpl.sol",
  "abi": [
    {
      "anonymous": false,
      "inputs": [
        {
          "indexed": false,
          "internalType": "bool",
          "name": "revoked",
          "type": "bool"
        }
      ],
      "name": "Revoked",
      "type": "event"
    },
    {
      "inputs": [
        {
          "internalType": "address",
          "name": "userAddr",
          "type": "address"
        },
        {
          "internalType": "address",
          "name": "registryAddr",
          "type": "address"
        }
      ],
      "name": "initialize",
      "outputs": [],
      "stateMutability": "nonpayable",
      "type": "function"
    },
    {
      "inputs": [
        {
          "internalType": "address",
          "name": "dest",
          "type": "address"
        },
        {
          "internalType": "address",
          "name": "from",
          "type": "address"
        },
        {
          "internalType": "address",
          "name": "to",
          "type": "address"
        },
        {
          "internalType": "uint256",
          "name": "tokenId",
          "type": "uint256"
        }
      ],
      "name": "invoke",
      "outputs": [
        {
          "internalType": "bool",
          "name": "result",
          "type": "bool"
        }
      ],
      "stateMutability": "nonpayable",
      "type": "function"
    },
    {
      "inputs": [
        {
          "internalType": "bool",
          "name": "revoke",
          "type": "bool"
        }
      ],
      "name": "setRevoke",
      "outputs": [],
      "stateMutability": "nonpayable",
      "type": "function"
    }
  ],
  "bytecode": "0x608060405234801561001057600080fd5b506104f0806100206000396000f3fe608060405234801561001057600080fd5b50600436106100415760003560e01c8063485cc955146100465780634c93505f1461005b5780638d1bc0101461006e575b600080fd5b6100596100543660046102ce565b610097565b005b61005961006936600461031e565b61014f565b61008161007c366004610350565b6101be565b60405161008e91906103be565b60405180910390f35b600054610100900460ff16806100b0575060005460ff16155b6100d55760405162461bcd60e51b81526004016100cc906103cc565b60405180910390fd5b600054610100900460ff161580156100f7576000805461ffff19166101011790555b6000805462010000600160b01b031916620100006001600160a01b038681169190910291909117909155600180546001600160a01b031916918416919091179055801561014a576000805461ff00191690555b505050565b6000546201000090046001600160a01b0316331461016c57600080fd5b6001805460ff60a01b1916600160a01b831515021790556040517f2165014523a6f4135deffed62d70149aad59b64de5aac51e3abbcbe2a83e2f7e906101b39083906103be565b60405180910390a150565b600154600090600160a01b900460ff16156101d857600080fd5b6000546201000090046001600160a01b031633146101f557600080fd5b846001600160a01b03168484846040516024016102149392919061042d565b60408051601f198184030181529181526020820180516001600160e01b0316632142170760e11b1790525161024991906104a7565b6000604051808303816000865af19150503d8060008114610286576040519150601f19603f3d011682016040523d82523d6000602084013e61028b565b606091505b50909150505b949350505050565b60006001600160a01b0382165b92915050565b6102b581610299565b81146102c057600080fd5b50565b80356102a6816102ac565b600080604083850312156102e4576102e4600080fd5b60006102f085856102c3565b9250506020610301858286016102c3565b9150509250929050565b8015156102b5565b80356102a68161030b565b60006020828403121561033357610333600080fd5b60006102918484610313565b806102b5565b80356102a68161033f565b6000806000806080858703121561036957610369600080fd5b600061037587876102c3565b9450506020610386878288016102c3565b9350506040610397878288016102c3565b92505060606103a887828801610345565b91505092959194509250565b8015155b82525050565b602081016102a682846103b4565b602080825281016102a681602e81527f496e697469616c697a61626c653a20636f6e747261637420697320616c72656160208201526d191e481a5b9a5d1a585b1a5e995960921b604082015260600190565b6103b881610299565b806103b8565b6060810161043b828661041e565b610448602083018561041e565b6102916040830184610427565b60005b83811015610470578181015183820152602001610458565b8381111561047f576000848401525b50505050565b600061048f825190565b61049d818560208601610455565b9290920192915050565b60006104b38284610485565b939250505056fea2646970667358221220d5687353c811bf12e73cf49ca25af797f7dd759100fe1330fc52ae07ed63719e64736f6c634300080b0033",
  "linkReferences": {},
  "deployedLinkReferences": {}
}